:020000040800F2
:1000000000040020A5050008AD050008AF050008A4
:10001000B1050008B3050008B505000800000000A0
:10002000000000000000000000000000B70500080C
:10003000B905000800000000BB050008BD05000868
:10004000BF050008BF050008BF050008BF05000880
:10005000BF050008BF050008BF050008BF05000870
:10006000BF050008BF050008BF050008BF05000860
:10007000BF050008BF050008BF050008BF05000850
:10008000BF050008BF050008BF050008BF05000840
:10009000BF050008BF050008BF050008BF05000830
:1000A000BF050008BF050008BF050008BF05000820
:1000B000BF050008BF050008BF050008BF05000810
:1000C000BF050008BF050008BF050008BF05000800
:1000D000BF050008BF05000821040008BF0500088F
:1000E000BF050008BF050008BF050008BF050008E0
:1000F000BF050008BF050008BF050008BF050008D0
:10010000BF050008BF050008BF050008BF050008BF
:10011000BF050008BF050008BF050008BF050008AF
:10012000BF050008BF050008BF050008BF0500089F
:10013000BF050008BF050008BF050008BF0500088F
:10014000BF050008BF050008BF050008BF0500087F
:10015000BF050008BF050008BF050008BF0500086F
:10016000BF050008BF050008BF050008BF0500085F
:10017000BF050008BF050008BF050008BF0500084F
:10018000BF050008BF05000800F002F800F03CF8C9
:100190000AA090E8000C82448344AAF10107DA45E2
:1001A00001D100F031F8AFF2090EBAE80F0013F0F8
:1001B000010F18BFFB1A43F00103184798430000D2
:1001C000D8430000103A24BF78C878C1FAD8520743
:1001D00024BF30C830C144BF04680C6070470000C1
:1001E0000023002400250026103A28BF78C1FBD840
:1001F000520728BF30C148BF0B6070471FB504F0DD
:10020000A4F91FBD10B510BD04F065F91146FFF744
:10021000F5FF00F029F904F083F903B4FFF7F2FFCA
:1002200003BC04F08BF90000D4490A780978491C12
:10023000D24B1970D24988541946097801F0070148
:100240001A4611707047CF490A780978491CCD4B7E
:100250001970CB49885C1946097801F007011A46E4
:100260001170704710B5044600BF8021C64802F0E7
:100270002CFF0028F9D02146C34802F03CFB10BDFA
:1002800008B501F099F8052003F0E0FB002001F02B
:10029000EFFA4FF4A05001F00DFB4FF4805001F045
:1002A00027FB012001F0B1F804200223A822014617
:1002B0000090000501F06FF9012001F0BAF900BFCC
:1002C000392001F0B6F80028FAD0022001F0B5FA82
:1002D00000BF01F0C8FA0828FBD100F01DFA08BDE4
:1002E00010B52021A94800F05AFE4021A74800F08F
:1002F0008CFE10BD10B56021A44800F050FE10BD6A
:1003000010B56021A14800F080FE10BD00B587B097
:100310000121084601F0FEFC0121480701F075FDAE
:100320001020059003208DF8180000208DF81B0088
:1003300005A9964800F0F2FB00200390049001907C
:10034000029003F08DF801A9002003F094F8012138
:10035000002003F04AF907B000BD00B587B00121C5
:10036000084601F0D7FC0C20049002208DF8140000
:1003700001208DF8150000208DF8160002208DF860
:10038000170004A9814800F0C9FB072202217F4819
:1003900000F037FF072203217C4800F032FF0121E3
:1003A000480401F032FD784801F0B0FF4FF41650D8
:1003B00000900020ADF80C000C20ADF80A000020E1
:1003C000ADF80800ADF80600ADF8040069466E48C7
:1003D00002F026F801216C4802F07DF901208DF829
:1003E000140000208DF81600E020049004A967484E
:1003F00000F094FB012240F22551634802F0D3FD46
:1004000026208DF8180000208DF819008DF81A00AC
:1004100001208DF81B0006A800F007FA07B000BD08
:1004200010B540F22551584802F002FF58B140F291
:100430002551554802F096FF534802F092FAC4B293
:100440002046FFF7F1FE10BD70B505460C4665204D
:10045000FFF708FF2846FFF705FF2046FFF702FFDA
:100460006620FFF7FFFE70BD72B6FFF709FFFFF7CA
:100470004DFFFFF772FF62B67BE0454800886421BC
:10048000484340F6FF7190FBF1F0C4B22146414869
:100490000078FFF7D9FF3E480188002003F046F9B5
:1004A0003648007837490978884262D0FFF7CBFE9A
:1004B0003949087008460078FE281AD1314800787A
:1004C000801E00F007002E49085C3249087008467B
:1004D000007820B1012805D0022809D105E0FFF7F6
:1004E0000FFF05E0FFF7FCFE02E0FFF703FF00BF90
:1004F00000BF29480078FD2810D12648007868B14F
:1005000020480078801E00F007001D49085CC0EB01
:100510000030FC2190FBF1F01D4908801E48007856
:10052000682826D117480078801E00F0070014497B
:10053000085CFF281DD100BF00BF00BF00BF00BF87
:10054000BFF34F8F00BF00BF00BF1448006800F426
:10055000E06013490843001D1049086000BF00BF58
:1005600000BFBFF34F8F00BF00BF00BF00E000BF60
:10057000FDE782E772B600E0ABBEFDE70D060020A6
:10058000050600200E060020004400400000024046
:100590000206002000060020040600200CED00E00A
:1005A0000000FA050948804709480047FEE7FEE7D2
:1005B000FEE7FEE7FEE7FEE7FEE7FEE7FEE7FEE713
:1005C00004480549054A064B70470000C10600086B
:1005D000890100080004002000040020000600201B
:1005E000000000200CB500200190009076480068C3
:1005F00040F480307449086000BF7348006800F41C
:10060000003000900198401C0190009818B90198A2
:10061000B0F5A04FF1D16C48006800F4003010B183
:100620000120009001E0002000900098012846D1B0
:1006300065484030006840F08050634940310860B0
:100640006248006840F44040604908605E480830F5
:1006500000685D49083108600846006840F40040C1
:1006600008600846006840F4A05008605848091F18
:100670000860081F006840F08070091F086000BF14
:100680005148006800F000700028F9D040F2057071
:10069000504908604C480830006820F003004A497F
:1006A000083108600846006840F00200086000BF9A
:1006B00045480830006800F00C000828F8D10CBD4F
:1006C00010B54548006840F47000434908603E4852
:1006D000006840F001003C49086000203A490831B8
:1006E0000860394800683D490840374908603C487F
:1006F000091D0860081F006820F48020091F086099
:10070000002031490C310860FFF76CFF4FF00060AA
:1007100031498039086010BD70B5002000220223E5
:1007200000240221284D08352D6805F00C0020B169
:10073000042806D0082834D107E02A4D2A4E356017
:1007400033E02A4D284E35602FE01F4D2D1D2D68BA
:10075000C5F380541C4D2D1D2D6805F03F0154B18B
:10076000224DB5FBF1F5184E361D3668C6F38816D6
:1007700005FB06F209E01B4DB5FBF1F5124E361DE7
:100780003668C6F3881605FB06F20F4D2D1D2D6841
:10079000C5F301456D1C6B00B2FBF3F5124E3560DD
:1007A00003E0104D104E356000BF00BF064D083508
:1007B0002D68C5F303150E4E705D0B4D2D68C540B9
:1007C000094E356070BD00000038024000700040E6
:1007D00019544007003C024088ED00E0FFFFF6FEA0
:1007E000103000240024F4001006002000127A00CB
:1007F0001406002010B50446B4F5E06F0BD0B4F534
:10080000C06F08D0B4F5A06F05D0B4F5806F02D0EA
:10081000B4F5407F00D103E079215FA0FFF7AAFE85
:10082000624820436249086010BD2DE9F04104464A
:10083000002500270F26E07810B1E078012800D1CC
:1008400003E08D2154A0FFF795FE6078102800DAB0
:1008500003E08E2150A0FFF78DFEA078102800DA6B
:1008600003E08F214CA0FFF785FEE07818B35048D5
:10087000006800F4E060C0F5E060C0F30725C5F152
:100880000400C7B22E416078B840C5B2A0783040AD
:1008900005432807050E474821784554207800F085
:1008A0001F010120884021784911890001F1E021D0
:1008B000C1F8000109E0207800F01F010120884004
:1008C0003D492278521141F82200BDE8F08170B50F
:1008D00004460D46B4F1005F02D0B4F1006F00D1C0
:1008E00003E0B7212CA0FFF745FE3448854200D233
:1008F00003E0B82128A0FFF73DFE314905EA0100D9
:1009000020432B49091F086070BD70B504460D4691
:10091000102C03D0042C01D0022C00D103E0CA21FA
:100920001DA0FFF727FE0DB1012D00D103E0CB2163
:1009300019A0FFF71FFE3DB11D48001D00682043B0
:100940001B49091D086006E01948001D0068A04306
:100950001749091D086070BD10B50446042C01D06C
:10096000601D00B903E0E2210BA0FFF703FE042C99
:1009700008D14FF0E020006940F004004FF0E02182
:10098000086107E04FF0E020006920F004004FF01C
:10099000E021086110BD00007372635C73706C5CD1
:1009A0007372635C6D6973632E6300000000FA0567
:1009B0000CED00E000E400E080E100E0FFFF0F004C
:1009C00080FFFF1F10B50446FC4884421DD0FC4840
:1009D00084421AD0FB48844217D0FB48844214D08A
:1009E000FA48844211D0FA4884420ED0F948844231
:1009F0000BD0F948844208D0F848844205D0F84822
:100A0000844202D0F748844200D103E08221F6A05C
:100A1000FFF7B0FDE948844208D10121084601F002
:100A200046FA0021012001F042FA76E0E4488442CF
:100A300008D10121022001F03AFA0021022001F040
:100A400036FA6AE0DF48844208D10121042001F02F
:100A50002EFA0021042001F02AFA5EE0DA488442EE
:100A600008D10121082001F022FA0021082001F01C
:100A70001EFA52E0D548844208D10121102001F02D
:100A800016FA0021102001F012FA46E0D048844204
:100A900008D10121202001F00AFA0021202001F0D4
:100AA00006FA3AE0CB48844208D10121402001F007
:100AB000FEF90021402001F0FAF92EE0C6488442F8
:100AC00008D10121802001F0F2F90021802001F0FD
:100AD000EEF922E0C148844208D10121801501F0DD
:100AE000E6F90021A01501F0E2F916E0BC488442C5
:100AF00008D10121401501F0DAF90021601501F05B
:100B0000D6F90AE0B748844207D10121001501F067
:100B1000CEF90021201501F0CAF910BD2DE9F041F0
:100B200004460D4600260027B046A44884421DD046
:100B3000A34884421AD0A348844217D0A2488442D2
:100B400014D0A248844211D0A14884420ED0A148BA
:100B500084420BD0A048844208D0A048844205D0EB
:100B60009F48844202D09F48844200D103E0CF21B5
:100B70009DA0FFF7FFFC288880B200B103E0D021E0
:100B800099A0FFF7F7FC287940B12879012805D012
:100B90002879022802D02879032800D103E0D12146
:100BA00091A0FFF7E7FCE87928B1E879012802D0A5
:100BB000E879022800D103E0D2218BA0FFF7DAFC0C
:100BC000002657E0012000FA06F7286800EA070827
:100BD000B8454ED1206872000321914088432060BF
:100BE000287971008840216808432060287901280D
:100BF00002D02879022830D1687940B1687901287B
:100C000005D06879022802D06879032800D103E072
:100C1000E42175A0FFF7AEFCA068720003219140AB
:100C20008843A060687971008840A1680843A0608B
:100C3000A87910B1A879012800D103E0EB216AA0BE
:100C4000FFF798FC61680120B040814361606168F2
:100C5000A879B04080B201436160E068720003216E
:100C600091408843E060E87971008840E16808437A
:100C7000E060761C102EA5D3BDE8F0814FF6FF7121
:100C800001600021017141718171C171704738B5F6
:100C900004460D464FF480300090484884421DD0F1
:100CA000474884421AD04748844217D04648844275
:100CB00014D04648844211D0454884420ED045485D
:100CC00084420BD04448844208D04448844205D032
:100CD0004348844202D04348844200D104E04FF4A8
:100CE0008D7141A0FFF746FCA8B200B104E040F2CC
:100CF0001B113DA0FFF73EFC009828430090009890
:100D0000E061E5610098E061E0690090E0690090D1
:100D100038BD70B505460C460026284885421DD0D2
:100D2000274885421AD02748854217D02648854251
:100D300014D02648854211D0254885420ED025483A
:100D400085420BD02448854208D02448854205D0EE
:100D50002348854202D02348854200D104E04FF465
:100D6000A47121A0FFF706FC012C25D0022C23D072
:100D7000042C21D0082C1FD0102C1DD0202C1BD0CF
:100D8000402C19D0802C17D0B4F5807F14D0B4F546
:100D9000007F11D0B4F5806F0ED0B4F5006F0BD08A
:100DA000B4F5805F08D0B4F5005F05D0B4F5804F8E
:100DB00002D0B4F5004F27D12CE000000000024023
:100DC0000004024000080240000C024000100240F3
:100DD0000014024000180240001C024000200240A3
:100DE00000240240002802407372635C73706C5CE4
:100DF0007372635C73746D3332663478785F6770D6
:100E0000696F2E630000000040F24911AFF2280024
:100E1000FFF7B0FB2869204008B1012600E000265A
:100E2000304670BD10B50446FE4884421DD0FE48D1
:100E300084421AD0FD48844217D0FD48844214D021
:100E4000FC48844211D0FC4884420ED0FB488442C6
:100E50000BD0FB48844208D0FA48844205D0FA48B7
:100E6000844202D0F948844200D105E04FF4B071C9
:100E7000AFF28C00FFF77EFB206980B210BD70B529
:100E800005460C460026E74885421DD0E6488542C7
:100E90001AD0E648854217D0E548854214D0E54887
:100EA000854211D0E44885420ED0E44885420BD0FB
:100EB000E348854208D0E348854205D0E2488542B0
:100EC00002D0E248854200D105E040F27311AFF252
:100ED000E800FFF74FFB012C25D0022C23D0042C77
:100EE00021D0082C1FD0102C1DD0202C1BD0402C22
:100EF00019D0802C17D0B4F5807F14D0B4F5007FC2
:100F000011D0B4F5806F0ED0B4F5006F0BD0B4F5EE
:100F1000805F08D0B4F5005F05D0B4F5804F02D0F3
:100F2000B4F5004F00D105E04FF4BA71AFF24810AC
:100F3000FFF720FB6869204008B1012600E0002689
:100F4000304670BD10B50446B64884421DD0B64840
:100F500084421AD0B548844217D0B548844214D090
:100F6000B448844211D0B44884420ED0B34884427D
:100F70000BD0B348844208D0B248844205D0B2486E
:100F8000844202D0B148844200D105E040F28B1186
:100F9000AFF2AC10FFF7EEFA606980B210BD70B529
:100FA00004460D469F4884421DD09F4884421AD073
:100FB0009E48844217D09E48844214D09D48844263
:100FC00011D09D4884420ED09C4884420BD09C484E
:100FD000844208D09B48844205D09B48844202D07A
:100FE0009A48844200D105E040F29F11AFF20820F8
:100FF000FFF7C0FAA8B200B105E04FF4D071AFF22C
:101000001820FFF7B7FA258370BD70B504460D466A
:10101000844884421DD0844884421AD08348844244
:1010200017D08348844214D08248844211D0824829
:1010300084420ED0814884420BD08148844208D03B
:101040008048844205D08048844202D07F48844250
:1010500000D105E04FF4DA71AFF27420FFF78AFA9D
:10106000A8B200B105E040F2B511AFF28420FFF75D
:1010700081FA658370BD70B505460C461646694811
:1010800085421DD0684885421AD06848854217D0ED
:101090006748854214D06748854211D0664885422A
:1010A0000ED0664885420BD06548854208D0654819
:1010B000854205D06448854202D06448854200D10B
:1010C00005E04FF4E571AFF2E020FFF753FA012C91
:1010D00025D0022C23D0042C21D0082C1FD0102C7A
:1010E0001DD0202C1BD0402C19D0802C17D0B4F54B
:1010F000807F14D0B4F5007F11D0B4F5806F0ED08E
:10110000B4F5006F0BD0B4F5805F08D0B4F5005F84
:1011100005D0B4F5804F02D0B4F5004F00D105E002
:1011200040F2CB11AFF24030FFF724FA0EB1012E9E
:1011300000D105E04FF4E671AFF25430FFF71AFA30
:101140000EB12C8300E06C8370BD70B504460D4673
:10115000344884421DD0344884421AD033488442F3
:1011600017D03348844214D03248844211D03248D8
:1011700084420ED0314884420BD03148844208D09A
:101180003048844205D03048844202D02F488442FF
:1011900000D105E040F2E311AFF2B430FFF7EAF915
:1011A000656170BD70B504460D461E4884421DD071
:1011B0001D4884421AD01D48844217D01C488442DE
:1011C00014D01C48844211D01B4884420ED01B48C6
:1011D00084420BD01A48844208D01A48844205D071
:1011E0001948844202D01948844200D105E040F2F7
:1011F000F311AFF20C40FFF7BDF960696840606120
:1012000070BD2DE9F04106460D4614460027B8464C
:101210000448864234D00448864231D0034886428E
:101220002ED015E0000002400004024000080240F9
:10123000000C02400010024000140240001802405E
:10124000001C02400020024000240240002802400E
:101250005148864214D05148864211D050488642A7
:101260000ED0504886420BD04F48864208D04F4897
:10127000864205D04E48864202D04E48864200D172
:1012800005E040F24921AFF2A040FFF773F9EDB15C
:10129000012D1BD0022D19D0032D17D0042D15D0F0
:1012A000052D13D0062D11D0072D0FD0082D0DD0F0
:1012B000092D0BD00A2D09D00B2D07D00C2D05D0F0
:1012C0000D2D03D00E2D01D00F2D00D105E040F2E1
:1012D0004A21AFF2EC40FFF74DF9A4B3092C32D00C
:1012E0008CB384B37CB374B3012C2CD02BD0022CE0
:1012F00029D028D027D0032C25D0042C23D022D0CD
:1013000021D0052C1FD01ED0092C1CD0062C1AD0A1
:10131000092C18D0072C16D015D014D0082C12D0B8
:1013200011D010D0092C0ED00DD00A2C0BD00AD021
:101330000B2C08D00C2C06D005D00D2C03D00F2C74
:1013400001D00C2C00D105E040F24B21AFF26850E7
:10135000FFF710F96807C00E04FA00F7E91006F16C
:10136000200050F821006907CA0E0F2191408843E0
:10137000EA1006F1200141F82200E91006F12000F0
:1013800050F8210040EA0708E91006F1200040F873
:101390002180BDE8F0810000000C024000100240F6
:1013A0000014024000180240001C024000200240CD
:1013B0000024024000280240F948006840F0010083
:1013C000F74908600020F64908310860F4480068D1
:1013D000F4490840F2490860F348091D0860F348E1
:1013E000EF4984310860F0481038091D0860EC4866
:1013F000006820F48020EA4908600020E8490C31A8
:101400000860E7498C310860704710B504461CB18C
:10141000012C01D0052C00D104E040F21F11E4A002
:10142000FFF7A8F80020DE49891C08700846047000
:1014300010BD2DE9F0410446002500260027212C8F
:1014400019D0312C17D0392C15D0412C13D0612C48
:1014500011D0792C0FD07A2C0DD07B2C0BD07C2C7A
:1014600009D07D2C07D07E2C05D07F2C03D03B2CBF
:1014700001D03D2C00D104E040F60241CCA0FFF7A2
:1014800079F86511012D02D1C548066808E0022DE2
:1014900003D1C3487030066802E0C1487430066862
:1014A00004F01F050120A840304008B1012700E0EA
:1014B00000273846BDE8F08138B5002000900024B0
:1014C000002500BF3120FFF7B4FF05460098401CFF
:1014D00000900098B0F5A04F01D0002DF2D031203F
:1014E000FFF7A7FF08B1012400E00024204638BD23
:1014F00070B5044600251F2C00DC04E040F25711B3
:10150000ABA0FFF737F8A648056825F0F80545EACF
:10151000C405056070BD10B504460CB1012C00D1A6
:1015200004E04FF4BD71A2A0FFF724F8A7480460BF
:1015300010BD10B504461CB1012C01D0042C00D103
:1015400004E040F293119AA0FFF714F800209449A8
:10155000703108700870012C02D0042C0AD104E00C
:1015600001208F497031087005E005208C497031E9
:10157000087000E000BF00BF10BD10B504460CB1FC
:10158000012C00D104E040F2BB1189A0FEF7F2FF6C
:101590008F48046010BD2DE9F04105460F46164600
:1015A0001C46DDF8188015B1B5F5800F00D104E0B8
:1015B00040F21E217EA0FEF7DDFF3F2F00D804E0A1
:1015C00040F21F217AA0FEF7D5FF322E03D3B6F5E5
:1015D000D87F00D804E04FF4087175A0FEF7CAFF69
:1015E000022C05D0042C03D0062C01D0082C00D1ED
:1015F00004E040F221216EA0FEF7BCFFB8F1040F19
:1016000003D3B8F10F0F00D804E040F2222168A004
:10161000FEF7B0FF47EA86100121C1EB540140EA12
:101620000140284340EA08605D49091D0860BDE8A3
:10163000F08110B504460CB1012C00D104E040F259
:1016400036215BA0FEF796FF6048046610BD70B5BA
:1016500005460C46322D03D3B5F5D87F00D804E0FB
:101660004FF4157152A0FEF785FF022C02D3072C10
:1016700000D804E040F255214DA0FEF77BFFA80101
:1016800040EA047046498431086070BD10B50446D4
:101690000CB1012C00D104E040F2DF2144A0FEF7A0
:1016A00069FF4A48846610BD70B506460C4615466B
:1016B000322E03D3B6F5D87F00D804E04FF453712F
:1016C0003BA0FEF757FF022D02D3072D00D804E000
:1016D00040F24D3136A0FEF74DFF022C02D30F2C05
:1016E00000D804E040F24E3131A0FEF743FFB001D4
:1016F00040EA046040EA057029498831086070BDFD
:1017000010B504460CB1012C00D104E04FF458711F
:1017100027A0FEF72FFF2D48046710BD10B5044623
:101720000CB1012C00D104E040F2723120A0FEF790
:1017300021FF2648C46410BD70B505460C4600263E
:1017400045B1B5F5001F05D0B5F5800F02D0B5F550
:10175000C00F00D104E040F28D3115A0FEF70AFF62
:101760005CB1B4F1806F08D0B4F1A06F05D0B4F1D2
:10177000C06F02D0B4F1E06F00D104E040F28E31CE
:101780000BA0FEF7F7FE06480830066826F0EC6668
:1017900045EA0400064302480830066070BD0000B8
:1017A00000380240FFFFF6EA10300024003000202D
:1017B0007372635C73706C5C7372635C73746D33AF
:1017C00032663478785F7263632E630000004742AC
:1017D000800E474270B505460C46002645B1B5F16E
:1017E000804F05D0B5F1004F02D0B5F1404F00D188
:1017F00005E040F2BA31AFF24800FEF7BBFE5CB143
:10180000B4F1005F08D0B4F1205F05D0B4F1405FBF
:1018100002D0B4F1605F00D105E040F2BB31AFF21D
:101820007000FEF7A7FEF948066826F0784645EAFC
:1018300004000643F548066070BD70B504460025F7
:101840001CB1012C01D0022C00D105E040F28241F4
:10185000AFF2A400FEF78EFEEC48056825F0030504
:101860002543056070BDE948006800F00C00704732
:1018700070B5044600257CB1802C0DD0902C0BD087
:10188000A02C09D0B02C07D0C02C05D0D02C03D070
:10189000E02C01D0F02C00D105E04FF49761AFF2BD
:1018A000F000FEF767FED948056825F0F0052543EE
:1018B000056070BD70B5044600255CB1B4F5805F6D
:1018C00008D0B4F5A05F05D0B4F5C05F02D0B4F580
:1018D000E05F00D105E040F2D741AFF22C10FEF7F7
:1018E00049FECA48056825F4E0552543056070BDEA
:1018F00070B5044600255CB1B4F5805F08D0B4F53E
:10190000A05F05D0B4F5C05F02D0B4F5E05F00D1B0
:1019100005E040F2F641AFF26810FEF72BFEBB483F
:10192000056825F4604545EAC405056070BDF0B55D
:10193000002100220024022500260223B34F3F6825
:1019400007F00C0121B1042905D0082937D105E0A1
:10195000AF4F076036E0AF4F076033E0AB4F3F1F3C
:101960003F68C7F38056A94F3F1F3F6807F03F030A
:101970006EB1A84FB7FBF3F7DFF890C2ACF1040CDF
:10198000DCF800C0CCF3881C07FB0CF40CE0A04F83
:10199000B7FBF3F7DFF874C2ACF1040CDCF800C05D
:1019A000CCF3881C07FB0CF4984F3F1F3F68C7F32C
:1019B00001477F1C7D00B4FBF5F7076002E0944F00
:1019C000076000BF00BF914F3F6807F0F0010909B1
:1019D000914F7A5C0768D74047608C4F3F6807F4A7
:1019E000E051890A8C4F7A5C4768D7408760874FFF
:1019F0003F6807F46041490B874F7A5C4768D740DE
:101A0000C760F0BD70B504460025B4F5807F5CD09A
:101A1000B4F5007F59D08148844256D08048844232
:101A200053D08048844250D07F4884424DD07F4874
:101A300084424AD07E48844247D07E48844244D083
:101A40007D48844241D07D4884423ED07C488442D7
:101A50003BD07C48844238D07B48844235D07B4898
:101A6000844232D07A4884422FD07A4884422CD0A3
:101A70007948844229D07948844226D078488442E3
:101A800023D07848844220D0774884421DD07748BC
:101A900084421AD07648844217D07648844214D0C3
:101AA0007548844211D0754884420ED074488442EF
:101AB0000BD07448844208D07348844205D07348E0
:101AC000844202D07248844200D105E040F2C35102
:101AD000AFF22430FEF74EFD04F44070B0F5407FC5
:101AE00009D14A48056825F4F8156A4904EA010055
:101AF000054346480560454868300068C4F30B015B
:101B0000084342496831086070BD10B504460CB105
:101B1000012C00D105E040F2E151AFF26C30FEF74C
:101B200029FD5D48046010BD10B504460CB1012CC0
:101B300000D105E040F2F251AFF28C30FEF71AFD11
:101B40005548001D046010BD10B504460CB1012CB1
:101B500000D105E040F2AE61AFF2AC30FEF70AFD15
:101B60004E48046010BD70B504460025B4F5801FD2
:101B700003D014B1B4F5001F00D105E040F2CB61F1
:101B8000AFF2D430FEF7F6FC20488430056825F427
:101B900040152543056070BD70B504460025B4F5B9
:101BA000800F03D014B1B4F5000F00D105E040F26E
:101BB000EF61AFF20440FEF7DDFC144884300568A5
:101BC00025F440052543056070BD70B50446002529
:101BD000012C02D3202C00D805E04FF4E261AFF2D3
:101BE0003040FEF7C7FC09488430056825F01F0522
:101BF000601E054305488430056070BD70B504461D
:101C00000025012C4CD3202C4AD84FE00838024044
:101C10000024F40000127A002406002000030200D1
:101C20000003030000030400000305000003060096
:101C300000030700000308000003090000030A0076
:101C400000030B0000030C0000030D0000030E0056
:101C500000030F0000031000000311000003120036
:101C60000003130000031400000315000003160016
:101C700000031700000318000003190000031A00F6
:101C800000031B0000031C0000031D0000031E00D6
:101C900000031F00FFFCFF0F3C0E47425C01474260
:101CA0004FF4E661AFF2F840FEF764FCF7480568D0
:101CB00025F4F855601E45EA0025F448056070BD1E
:101CC00070B50446002544B1B4F5803F05D0B4F5A5
:101CD000003F02D0B4F5403F00D105E040F29371DF
:101CE000AFF23450FEF746FCE848056825F440356D
:101CF0002543056070BD10B504460CB1012C00D120
:101D000005E040F61101AFF25850FEF733FCE04811
:101D1000046010BD70B504460D46DE48204008B989
:101D200004B105E040F63B01AFF27C50FEF722FC27
:101D30000DB1012D00D105E040F63D01AFF290500C
:101D4000FEF718FC3DB1D1485C3800682043CF490C
:101D50005C39086006E0CD485C380068A043CB4998
:101D60005C39086070BD70B504460D4624F0F10082
:101D700008B904B105E040F65B01AFF2CC50FEF7C4
:101D8000F9FB0DB1012D00D105E040F65C01AFF289
:101D9000E050FEF7EFFB3DB1BC48583800682043E7
:101DA000BA495839086006E0B84858380068A04376
:101DB000B6495839086070BD70B504460D4624F028
:101DC000010008B904B105E040F67901AFF22060E6
:101DD000FEF7D0FB0DB1012D00D105E040F67A01F0
:101DE000AFF23460FEF7C6FB3DB1A8485438006836
:101DF0002043A6495439086006E0A44854380068D6
:101E0000A043A2495439086070BD70B504460D4620
:101E100004F4585008B904B105E040F6B201AFF23D
:101E20007060FEF7A7FB0DB1012D00D105E040F673
:101E3000B301AFF28460FEF79DFB3DB193484C388F
:101E40000068204391494C39086006E08F484C38BF
:101E50000068A0438D494C39086070BD70B50446D8
:101E60000D468D48204008B904B105E040F6E60172
:101E7000AFF2C460FEF77EFB0DB1012D00D105E08D
:101E800040F6E701AFF2D860FEF774FB3DB17F4842
:101E90004838006820437D494839086006E07B489F
:101EA00048380068A04379494839086070BD70B56A
:101EB00004460D467948204008B904B105E04FF4C6
:101EC0001161AFF21470FEF755FB0DB1012D00D179
:101ED00005E040F61111AFF22870FEF74BFB3DB163
:101EE0006A487C380068204368497C39086006E00D
:101EF00066487C380068A04364497C39086070BD3E
:101F000070B504460D4624F0F10008B904B105E0AF
:101F100040F62D11AFF26870FEF72CFB0DB1012DCC
:101F200000D105E040F62E11AFF27C70FEF722FBE7
:101F30003DB15648783800682043544978390860E4
:101F400006E0524878380068A04350497839086064
:101F500070BD70B504460D4624F0010008B904B107
:101F600005E040F64811AFF2B870FEF703FB0DB183
:101F7000012D00D105E040F64911AFF2CC70FEF71B
:101F8000F9FA3DB141487438006820433F4974393B
:101F9000086006E03D4874380068A0433B49743946
:101FA000086070BD70B504460D4604F4585008B979
:101FB00004B105E040F67E11AFF60C00FEF7DAFA48
:101FC0000DB1012D00D105E040F67F11AFF62000E4
:101FD000FEF7D0FA3DB12D486C38006820432B49FC
:101FE0006C39086006E029486C380068A04327492E
:101FF0006C39086070BD70B504460D462848204015
:1020000008B904B105E040F6AD11AFF65C00FEF78B
:10201000B1FA0DB1012D00D105E040F6AE11AFF6D9
:102020007000FEF7A7FA3DB11848683800682043F1
:1020300016496839086006E0144868380068A0430B
:1020400012496839086070BD70B504460D461548E0
:10205000204008B904B105E040F6DE11AFF6B0004B
:10206000FEF788FA0DB1012D00D105E040F6DF1131
:10207000AFF6C400FEF77EFAB5B104483C380068FC
:10208000204302493C39086013E000008C380240CC
:10209000E011474200E80B010C0008F000E81F05C2
:1020A0000C8608F20068100196480068A043954924
:1020B000086070BD70B504460D4624F0F10008B903
:1020C00004B105E040F6FE11AFF61C10FEF752FA1F
:1020D0000DB1012D00D105E040F6FF11AFF6301033
:1020E000FEF748FA3DB18748001D00682043854946
:1020F000091D086006E08348001D0068A04381496F
:10210000091D086070BD70B504460D4624F001003D
:1021100008B904B105E040F61C21AFF66C10FEF7DB
:1021200029FA0DB1012D00D105E040F61D21AFF6D1
:102130008010FEF71FFA3DB1724808300068204356
:1021400070490831086006E06E4808300068A04316
:102150006C490831086070BD70B504460D4604F442
:10216000585008B904B105E040F65521AFF6C0104B
:10217000FEF700FA0DB1012D00D105E040F6562121
:10218000AFF6D410FEF7F6F93DB15E4810300068A6
:1021900020435C491031086006E05A48103000685E
:1021A000A04358491031086070BD70B504460D4613
:1021B0005548204008B904B105E040F68921AFF642
:1021C0001020FEF7D7F90DB1012D00D105E040F642
:1021D0008A21AFF62420FEF7CDF93DB149481430ED
:1021E0000068204347491431086006E04548143030
:1021F0000068A04343491431086070BD10B504461F
:102200000CB1012C00D105E040F6A121AFF6602011
:10221000FEF7B0F9012C08D13A482030006840F0B0
:10222000080038492031086007E03648203000684F
:1022300020F0080033492031086010BD70B5044615
:102240000D4604F0800008B904B105E040F6D9312C
:10225000AFF6A420FEF78EF90DB1012D00D105E0F7
:1022600040F6DA31AFF6B820FEF784F93DB12548E3
:1022700043380078204323494339087006E0214859
:1022800043380078A0431F494339087070BD1D488A
:102290002430006840F080701A492431086070478B
:1022A00070B504460025012C0DD0022C0BD0042C57
:1022B00009D0082C07D0102C05D0802C03D0402C3E
:1022C00001D0202C00D105E040F64141AFF620308E
:1022D000FEF750F90B4844380068204008B101254A
:1022E00000E00025284670BD10B5044604B105E0A5
:1022F00040F66141AFF64830FEF73CF901484238FC
:10230000047010BD503802400C0008F010B50446AF
:10231000FE4884421AD0FE48844217D0FD488442C9
:1023200014D0FD48844211D0FC4884420ED0FC48B1
:1023300084420BD0FB48844208D0FB48844205D03D
:10234000FA48844202D0FA48844200D103E0BE2118
:10235000F8A0FEF70FF9ED48844208D101211020C2
:10236000FFF749FE00211020FFF745FE57E0E8483F
:10237000844209D101214804FFF714FE00214FF4E3
:102380000030FFF70FFE4AE0E248844209D1012104
:102390008804FFF707FE00214FF48020FFF702FEBC
:1023A0003DE0DD48844209D10121C804FFF7FAFD70
:1023B00000214FF40020FFF7F5FD30E0D7488442BC
:1023C00009D101210805FFF7EDFD00214FF4801030
:1023D000FFF7E8FD23E0D248844208D10121202004
:1023E000FFF709FE00212020FFF705FE17E0CD488A
:1023F000844209D101218807FFF7D4FD00214FF065
:102400008040FFF7CFFD0AE0C748844207D1012191
:102410004005FFF7C7FD00216005FFF7C3FD10BDB4
:102420002DE9FF4704460D460026B14600BFB046E1
:10243000B64884421AD0B648844217D0B548844280
:1024400014D0B548844211D0B44884420ED0B44868
:1024500084420BD0B348844208D0B348844205D0AC
:10246000B248844202D0B248844200D103E0FE2147
:10247000B0A0FEF77FF8286820B1B64928688842E6
:1024800000D203E0FF21ABA0FEF774F8A88818B1D2
:10249000A888B0F5805F00D104E04FF48071A5A05A
:1024A000FEF768F8E88858B1E888B0F5805F07D093
:1024B000E888B0F5005F03D0E888B0F5405F00D150
:1024C00004E040F201119BA0FEF754F8288938B1CE
:1024D0002889B0F5806F03D02889B0F5C06F00D18E
:1024E00004E04FF4817193A0FEF744F868894FF639
:1024F000F371084010B9688900B104E040F203119B
:102500008CA0FEF737F8A88958B1A889B0F5807F6C
:1025100007D0A889B0F5007F03D0A889B0F5407F27
:1025200000D104E04FF4827182A0FEF723F8A8895D
:1025300088B17648844208D07548844205D07548F1
:10254000844202D07648844200D104E040F209116E
:1025500078A0FEF70FF8268A26F44056E88806434E
:102560002682A68941F20C608643A88829890843FF
:10257000698908430643A681A68A26F44076A8897D
:102580000643A6826846FFF7D2F96048844202D02B
:102590006348844202D1DDF80C9001E0DDF8089038
:1025A000A08900F4004040B109EBC90000EB09101C
:1025B00029684900B0FBF1F707E009EBC90000EB1F
:1025C000091029688900B0FBF1F76420B7FBF0F02F
:1025D00006013009642101FB1078A08900F4004055
:1025E00040B1322000EBC800B0FBF1F000F0070072
:1025F000064308E0322000EB08106421B0FBF1F044
:1026000000F00F0006432681BDE8FF874FF4165106
:10261000016000218180C18001810C214181002164
:102620008181704770B505460C46002637488542C3
:1026300008D03748854205D03648854202D0384810
:10264000854200D104E040F27F113AA0FDF792FFED
:10265000208818B12088B0F5006F00D104E04FF455
:10266000C07134A0FDF786FF608818B16088B0F5AE
:10267000806F00D104E040F281112EA0FDF77AFFB7
:10268000A08818B1A088B0F5007F00D104E04FF415
:10269000C17128A0FDF76EFFE08818B1E088B0F5A1
:1026A000807F00D104E040F2831122A0FDF762FF99
:1026B0002E8A26F47066208861880843A188084322
:1026C000E188084306432E8270BD002101804180CD
:1026D0008180C180704770B504460D460B48844226
:1026E00041D00B4884423ED00A4884423BD00A483D
:1026F000844238D00948844235D00948844232D0D7
:10270000084884422FD00848844225E00010014048
:102710000044004000480040004C00400050004091
:102720000014014000780040007C00400018014087
:10273000001C01407372635C73706C5C7372635C49
:1027400073746D3332663478785F75736172742E8A
:1027500063000000E170720005D0FE48844202D0A0
:10276000FD48844200D105E04FF4D771AFF23C0040
:10277000FDF700FF0DB1012D00D105E040F2AF11D2
:10278000AFF25000FDF7F6FE25B1A08940F40050ED
:10279000A08104E0A0894DF6FF710840A08170BDC2
:1027A00070B504460D46ED4884421AD0EC48844288
:1027B00017D0EC48844214D0EB48844211D0EB4847
:1027C00084420ED0EA4884420BD0EA48844208D0C2
:1027D000E948844205D0DF48844202D0DE48844282
:1027E00000D105E04FF4E471AFF2B800FDF7C2FE8E
:1027F000208B00F47F402083208B2843208370BDF2
:1028000070B504460D46D54884421AD0D448844257
:1028100017D0D448844214D0D348844211D0D3482E
:1028200084420ED0D24884420BD0D248844208D091
:10283000D148844205D0C748844202D0C648844269
:1028400000D105E040F2DD11AFF21810FDF792FE65
:102850000DB1012D00D105E04FF4EF71AFF22C1056
:10286000FDF788FE25B1A08940F40040A08103E077
:10287000A089C0F30E00A08170BD70B504460D465E
:10288000B64884421AD0B648844217D0B54884422C
:1028900014D0B548844211D0B44884420ED0B44814
:1028A00084420BD0B348844208D0B348844205D058
:1028B000A848844202D0A848844200D105E040F2F2
:1028C000F711AFF29010FDF755FE0DB1012D00D1BB
:1028D00005E04FF4FC71AFF2A410FDF74BFE25B1FB
:1028E000A08A40F40060A08204E0A08A4FF2FF7149
:1028F0000840A08270BD70B504460D4697488442DA
:102900001AD09748844217D09648844214D09648EB
:10291000844211D0954884420ED0954884420BD011
:102920009448844208D09448844205D0894884421F
:1029300002D08948844200D105E04FF40C71AFF217
:102940000C20FDF717FEB5F5007F00DA05E040F238
:102950003121AFF22020FDF70DFEC5F30800A08065
:1029600070BD10B504467D4884421AD07C4884422C
:1029700017D07C48844214D07B48844211D07B48D5
:1029800084420ED07A4884420BD07A48844208D0E0
:102990007948844205D06F48844202D06E48844210
:1029A00000D105E04FF41071AFF27820FDF7E2FDA1
:1029B000A088C0F3080010BD70B504460D466748F6
:1029C00084421AD06648844217D06648844214D0A4
:1029D0006548844211D0654884420ED064488442E0
:1029E0000BD06448844208D06348844205D05948DB
:1029F000844202D05848844200D105E04FF41D7152
:102A0000AFF2D020FDF7B6FD0F2D00DC05E040F25F
:102A10007521AFF2E020FDF7ADFD208A4FF6F07191
:102A200008402082208A2843208270BD70B5044669
:102A30000D464A4884421AD04948844217D0494832
:102A4000844214D04848844211D0484884420ED071
:102A5000474884420BD04748844208D046488442C5
:102A600005D03C48844202D03B48844200D105E076
:102A70004FF42271AFF24430FDF77CFD0DB1012D12
:102A800000D105E040F28921AFF25830FDF772FD28
:102A900025B1A08940F00200A08104E0A0894FF692
:102AA000FD710840A08170BD70B504460D462B48ED
:102AB00084421AD02A48844217D02A48844214D02B
:102AC0002948844211D0294884420ED028488442A3
:102AD0000BD02848844208D02748844205D01D489E
:102AE000844202D01C48844200D105E040F2A32178
:102AF000AFF2C030FDF73EFD15B1B5F5006F00D166
:102B000005E04FF42971AFF2D430FDF733FDA08911
:102B10004FF2FF710840A081A0892843A08170BDB9
:102B200070B504460D460D4884422FD00C488442AF
:102B30002CD00C48844229D00B48844226D00B4824
:102B4000844223D00A48844220D00A4884421DD0BF
:102B5000094813E000180140001C0140001001402A
:102B60000044004000480040004C0040005000403D
:102B70000014014000780040007C0040844205D0F1
:102B8000F748844202D0F748844200D105E04FF470
:102B90003A71AFF26040FDF7EDFC0DB1202D00D190
:102BA00005E040F2E921AFF27440FDF7E3FC208A32
:102BB0004FF6DF7108402082208A2843208270BDB2
:102BC00070B504460D46E84884421AD0E74884426E
:102BD00017D0E748844214D0E648844211D0E64832
:102BE00084420ED0E54884420BD0E548844208D0A8
:102BF000E448844205D0DA48844202D0D94884426D
:102C000000D105E040F2FA21AFF2D840FDF7B2FC66
:102C10000DB1012D00D105E040F2FB21AFF2EC40F7
:102C2000FDF7A8FC25B1208A40F48040208204E012
:102C3000208A4BF6FF710840208270BD10B5044613
:102C4000C94884421AD0C948844217D0C84884422F
:102C500014D0C848844211D0C74884420ED0C74817
:102C600084420BD0C648844208D0C648844205D06E
:102C7000BB48844202D0BB48844200D105E040F208
:102C80001231AFF25050FDF775FCA08940F0010001
:102C9000A08110BD70B504460D46B34884421AD0D9
:102CA000B248844217D0B248844214D0B14884421A
:102CB00011D0B14884420ED0B04884420BD0B04805
:102CC000844208D0AF48844205D0A548844202D04F
:102CD000A448844200D105E040F24731AFF2AC5045
:102CE000FDF748FC0DB1012D00D105E04FF4527104
:102CF000AFF2C050FDF73EFC25B1A08A40F00800BD
:102D0000A08204E0A08A4FF6F7710840A08270BD4F
:102D100070B504460D469448844208D093488442D6
:102D200005D09348844202D09448844200D105E003
:102D300040F29B31AFF20460FDF71CFC208BC0B267
:102D40002083208B40EA0520208370BD70B50446A7
:102D50000D468548844208D08448844205D0844882
:102D6000844202D08548844200D105E040F2AE3171
:102D7000AFF24060FDF7FEFB0DB1012D00D105E083
:102D800040F2AF31AFF25460FDF7F4FB25B1A08AF9
:102D900040F02000A08204E0A08A4FF6DF710840D6
:102DA000A08270BD70B504460D466F48844208D0BD
:102DB0006E48844205D06E48844202D06F488442F7
:102DC00000D105E040F2C731AFF29860FDF7D2FBC9
:102DD0000DB1012D00D105E04FF47271AFF2AC607E
:102DE000FDF7C8FB25B1A08A40F01000A08204E0E6
:102DF000A08A4FF6EF710840A08270BD70B50446FE
:102E00000D46594884421AD05848844217D0584831
:102E1000844214D05748844211D0574884420ED07F
:102E2000564884420BD05648844208D055488442C4
:102E300005D04B48844202D04A48844200D105E084
:102E400040F20E41AFF21470FDF794FB042D00D058
:102E500005B905E040F20F41AFF22870FDF78AFB9B
:102E6000A08A4FF6FB710840A082A08A2843A08266
:102E700070BD70B504460D463B4884421AD03B48AD
:102E8000844217D03A48844214D03A48844211D040
:102E9000394884420ED0394884420BD038488442A5
:102EA00008D03848844205D02D48844202D02D48AD
:102EB000844200D105E04FF48461AFF28870FDF7E1
:102EC00059FB0DB1012D00D105E040F22141AFF2D7
:102ED0009C70FDF74FFB25B1A08A40F00200A08254
:102EE00004E0A08A4FF6FD710840A08270BD70B565
:102EF00004460D4616461C4884421AD01B4884429C
:102F000017D01B48844214D01A48844211D01A4862
:102F100084420ED0194884420BD01948844208D00C
:102F20001848844205D00E48844202D00D4884429D
:102F300000D105E040F24E41AFF60800FDF71AFB64
:102F40004FF63F70284008B905B105E040F24F4107
:102F5000AFF62000FDF70EFB0EB1012E14D119E0E3
:102F600000180140001C01400010014000440040D6
:102F700000480040004C0040005000400014014058
:102F800000780040007C00404FF48A61AFF65C009E
:102F9000FDF7F0FA1EB1A08A2843A08202E0A08AC1
:102FA000A843A08270BD2DE9F04704460D461746A0
:102FB0004FF00008C246C1460026FD4884421AD0A0
:102FC000FC48844217D0FC48844214D0FB48844219
:102FD00011D0FB4884420ED0FA4884420BD0FA4804
:102FE000844208D0F948844205D0F948844202D08E
:102FF000F848844200D105E040F2D441AFF6CC005D
:10300000FDF7B8FA282D19D040F22770854215D067
:1030100040F22660854211D040F2255085420DD005
:1030200040F22440854209D040F64600854205D052
:1030300040F66A10854201D0602D00D105E040F2D3
:10304000D541AFF61010FDF795FA0FB1012F00D161
:1030500005E040F2D641AFF62410FDF78BFA40F6BA
:103060006A10854212D1D248844208D0D1488442A5
:1030700005D0D148844202D0D248844200D105E034
:1030800040F2DB41AFF65410FDF774FA2646C5F363
:10309000421805F01F0A012000FA0AF9B8F1010FE1
:1030A00001D10C3605E0B8F1020F01D1103600E075
:1030B000143627B1306840EA0900306003E0306818
:1030C00020EA09003060BDE8F08770B504460D467F
:1030D0000026B74884421AD0B648844217D0B64872
:1030E000844214D0B548844211D0B54884420ED0F1
:1030F000B44884420BD0B448844208D0B3488442D8
:1031000005D0B348844202D0B248844200D105E0E1
:1031100040F21351AFF6E410FDF72CFA012D13D055
:10312000802D11D0402D0FD0202D0DD0102D0BD083
:10313000B5F5807F08D0B5F5007F05D0082D03D008
:10314000042D01D0022D00D105E040F21451AFF65C
:103150001C20FDF70FFAB5F5007F12D19448844288
:1031600008D09448844205D09348844202D09548C0
:10317000844200D105E040F21951AFF64820FDF736
:10318000F9F92088284008B1012600E000263046E1
:1031900070BD70B504460D46854884421AD08548F6
:1031A000844217D08448844214D08448844211D089
:1031B000834884420ED0834884420BD082488442A4
:1031C00008D08248844205D08148844202D0814898
:1031D000844200D105E040F24351AFF6A820FDF74C
:1031E000C9F94FF69F40284008B905B105E040F203
:1031F0004451AFF6C020FDF7BDF905F40070B0F5FD
:10320000007F12D16A48844208D06A48844205D0BF
:103210006948844202D06B48844200D105E040F204
:103220004951AFF6F020FDF7A5F9E843208070BDC5
:103230002DE9F04704460D4600270026B046B1466A
:103240005B4884421AD05B48844217D05A48844273
:1032500014D05A48844211D0594884420ED059485B
:1032600084420BD05848844208D05848844205D044
:103270005748844202D05748844200D105E040F2CA
:103280006751AFF65030FDF775F9282D27D040F281
:103290002770854223D040F2266085421FD040F23D
:1032A000255085421BD040F22440854217D040F67D
:1032B0004600854213D040F66A1085420FD0B5F51E
:1032C000587F0CD040F22530854208D0B5F5587FA4
:1032D00005D0B5F5187F02D0B5F5B07F00D105E077
:1032E0004FF4AD61AFF6B430FDF744F940F66A1023
:1032F000854212D12E48844208D02E48844205D0FF
:103300002D48844202D02F48844200D105E040F28B
:103310006D51AFF6E030FDF72DF9C5F3421805F019
:103320001F06012000FA06F6B8F1010F02D1A089AC
:10333000064007E0B8F1020F02D1208A064001E002
:10334000A08A06402F12012000FA07F720880740C4
:103350001EB117B14FF0010901E04FF000094846D6
:10336000BDE8F0872DE9F04104460D460026002710
:103370000F4884421AD00F48844217D00E48844226
:1033800014D00E48844211D00D4884420ED00D480E
:1033900084420BD00C48844208D00C48844205D0AB
:1033A0000B48844202D00B48844215D11AE0000039
:1033B000001001400044004000480040004C004024
:1033C000005000400014014000780040007C0040A4
:1033D00000180140001C01404FF4B661AFF6AC404C
:1033E000FDF7C8F840F2266085420BD040F2255028
:1033F000854207D040F64600854203D040F66A1069
:10340000854200D105E040F2B151AFF6D840FDF75A
:10341000B1F840F66A10854212D10D48844208D0B6
:103420000C48844205D00C48844202D00B488442A8
:1034300000D105E040F2B651AFF60850FDF79AF81A
:103440002E120120B04087B2F8432080BDE8F08101
:1034500000100140004400400048004000140140BA
:1034600010B501214807FEF79DFD00214FF00050E7
:10347000FEF798FD10BD2DE9F04105460C460026EB
:1034800000272068B8B12068042814D020680C28D0
:1034900011D0206814280ED020681C280BD020687A
:1034A000242808D020682C2805D02068342802D091
:1034B00020683C2800D103E0D321F7A0FDF75AF89B
:1034C000606828B16068402802D06068802800D118
:1034D00003E0D421F0A0FDF74DF8A068F0B3A06898
:1034E000B0F5807F57D0A068B0F5007F53D0A068BA
:1034F000B0F5407F4FD0A068B0F5806F4BD0A0688A
:10350000B0F5A06F47D0A068B0F5C06F43D0A068F9
:10351000B0F5E06F3FD0A068B0F5006F3BD0A06879
:10352000B0F5106F37D0A068B0F5206F33D0A06829
:10353000B0F5306F2FD0A06880B1A068B0F5807F63
:1035400029D0A068B0F5007F25D0A068B0F5407FF5
:1035500021D0A068B0F5806F1DD000E01BE0A0680E
:10356000B0F5A06F17D0A068B0F5C06F13D0A068F9
:10357000B0F5E06F0FD0A068B0F5006F0BD0A06879
:10358000B0F5106F07D0A068B0F5206F03D0A06829
:10359000B0F5306F00D103E0D521BFA0FCF7EAFF02
:1035A000E06810B1E068022800D103E0D621BAA09B
:1035B000FCF7E0FFBF48066840F6FE70A84086436F
:1035C000D4E900010843A1680843E16840EA010723
:1035D00007FA05F00643B7480660BDE8F081002110
:1035E000016041608160C160704770B504460D465E
:1035F0000CB1102C00D104E040F20D11A6A0FCF794
:10360000B9FF0DB1012D00D104E04FF48771A2A0E4
:10361000FCF7B0FF3DB1A74800680121A140084375
:10362000A449086006E0A34800680121A14088433E
:10363000A049086070BD70B504460D460CB1102C51
:1036400000D104E040F2291193A0FCF793FF0DB1E3
:10365000012D00D104E04FF495718FA0FCF78AFF93
:1036600055B19448001D006822090121914008438A
:103670009049091D086009E08E48001D0068220974
:103680000121914088438B49091D086070BD10B528
:1036900004460CB1012C00D104E040F241117EA09F
:1036A000FCF768FF44B18348001D006840F0030048
:1036B0008049091D086007E07E48001D006820F071
:1036C00003007C49091D086010BD70B504460D4615
:1036D00016460CB1102C00D104E04FF4B0716EA06E
:1036E000FCF748FF402D01D0802D00D104E040F2CE
:1036F000611169A0FCF73EFF0EB1012E00D104E07C
:103700004FF4B17164A0FCF735FF3EB16948006821
:1037100005FA04F108436749086006E06548006857
:1037200005FA04F188436349086070BD38B5044662
:103730000D46002000901CB1042C01D0082C00D1B3
:1037400004E040F27F1154A0FCF714FF4FF6F07034
:10375000854200DC04E04FF4C0714FA0FCF70AFF83
:103760005448009004F10800009908440090009823
:10377000056038BD38B504460D46002000901CB1E8
:10378000042C01D0082C00D104E04FF4CC7142A0ED
:10379000FCF7F0FE4FF6F070854200DC04E040F2EA
:1037A00099113DA0FCF7E6FE4248009004F1140098
:1037B0000099084400900098056038BD2DE9F0415B
:1037C00004460D4616464FF0000800271CB1042C95
:1037D00001D0082C00D104E04FF4DA712EA0FCF7E0
:1037E000C9FE4FF6F070864200DC04E040F2B511ED
:1037F00029A0FCF7BFFE4FF6F070854200DC04E024
:103800004FF4DB7124A0FCF7B5FE082C02D146EA88
:10381000052801E046EA0548264F04F12000074448
:10382000C7F80080BDE8F08138B50446002000905C
:103830000CB1102C00D104E04FF4EB7116A0FCF792
:1038400099FE1C4800902C2000EB9400009908443D
:1038500000900098006880B238BD70B504460D46EF
:103860000CB1102C00D104E040F201210AA0FCF7B9
:1038700081FE0DB1012D00D104E040F2022106A02D
:10388000FCF778FEC5B10B4800684FF48051A140A9
:1038900008430849086017E07372635C73706C5CDE
:1038A0007372635C73746D3332663478785F64610D
:1038B000632E630000740040634800684FF4805139
:1038C000A14088436049086070BD70B504460E464B
:1038D00015460CB1102C00D105E040F23121AFF2B9
:1038E0004800FCF747FE0DB1012D00D105E040F284
:1038F0003221AFF25C00FCF73DFEB6F5005F00D16F
:1039000005E040F23321AFF27000FCF733FE3DB129
:103910004D48006806FA04F108434B49086006E088
:103920004948006806FA04F188434749086070BDB9
:1039300070B504460D4600260CB1102C00D105E0F0
:1039400040F25221AFF2B000FCF714FEB5F5005F73
:1039500000D105E040F25321AFF2C400FCF70AFEAB
:1039600039483430006805FA04F1084008B10126EE
:1039700000E00026304670BD70B504460D460CB11F
:10398000102C00D105E04FF41D71AFF2F400FCF7EC
:10399000F1FDB5F5005F00D105E040F27521AFF211
:1039A0000810FCF7E7FD05FA04F0274934310860F8
:1039B00070BD2DE9F04104460D46002600270CB1EC
:1039C000102C00D105E040F28E21AFF23410FCF74C
:1039D000D1FDB5F5005F00D105E040F28F21AFF2D7
:1039E0004810FCF7C7FD1848006805FA04F100EA22
:1039F000010715483430006805FA04F1084010B199
:103A00000FB1012600E000263046BDE8F08170B518
:103A100004460D460CB1102C00D105E040F2B32154
:103A2000AFF28C10FCF7A6FDB5F5005F00D105E004
:103A30004FF42D71AFF2A010FCF79CFD05FA04F0D5
:103A400001493431086070BD0074004010B504466F
:103A5000ECB1012C1BD0022C19D0032C17D0042C54
:103A600015D0052C13D0062C11D0072C0FD0082C04
:103A70000DD0092C0BD00A2C09D00B2C07D00C2C04
:103A800005D00D2C03D00E2C01D00F2C00D104E05A
:103A90004FF48C71F1A0FCF76DFDF8490C7010BD6E
:103AA00010B504460CB1012C00D104E040F22711FE
:103AB000EAA0FCF75FFD34B1F048006840F4807084
:103AC000EE49086005E0ED48006820F48070EB499D
:103AD000086010BD10B504460CB1012C00D104E003
:103AE00040F23D11DDA0FCF745FD34B1E34800682C
:103AF00040F40070E149086005E0E048006820F407
:103B00000070DE49086010BD10B504460CB1012CF0
:103B100000D104E04FF4A971D0A0FCF72BFD34B123
:103B2000D648006840F48060D449086005E0D34876
:103B3000006820F48060D149086010BDCF4800685B
:103B400040F40060CD4908607047CC48006840F4FC
:103B50008050CA4908607047C8481030006800F0BB
:103B6000004028B1C648C549091D0860C54808601D
:103B70007047C2481030006840F00040BF49103123
:103B8000086070470920BD490C31096801F4803193
:103B9000B1F5803F01D1012020E0B8490C3109681E
:103BA00001F0100109B1062018E0B4490C31096890
:103BB00001F4807109B1022010E0B0490C310968AC
:103BC00001F0E00109B1072008E0AC490C310968B7
:103BD00001F0020109B1082000E00920704708B592
:103BE00009200090FFF7CEFF009002E0FFF7CAFF28
:103BF00000909DF800000128F8D09DF8000008BD55
:103C00002DE9F04104460D46002709266CB3082C27
:103C10002BD0102C29D0182C27D0202C25D0282CA4
:103C200023D0302C21D0382C1FD0402C1DD0482C34
:103C30001BD0502C19D0582C17D0802C15D0882C84
:103C400013D0902C11D0982C0FD0A02C0DD0A82CD4
:103C50000BD0B02C09D0B82C07D0C02C05D0C82C64
:103C600003D0D02C01D0D82C00D104E040F2E111D7
:103C70007AA0FCF77FFC2DB1012D03D0022D01D0DD
:103C8000032D00D104E04FF4F17174A0FCF772FC35
:103C90000DB9002709E0012D01D12F0205E0022D09
:103CA00001D12F0201E04FF44077FFF798FF06465D
:103CB000092E2DD171481030006820F440706F49F2
:103CC00010310860084600683843086008460068FC
:103CD00020F0F80008600846006844F0020108433C
:103CE0006649103108600846006840F4803008607A
:103CF000FFF775FF064661481030006820F00200AB
:103D00005E49103108600846006820F0F80008603D
:103D10003046BDE8F08170B5044600260925FFF75E
:103D20005EFF05462CB1012C03D0022C01D0032CE0
:103D300000D104E040F2262148A0FCF71BFC0CB99E
:103D4000002609E0012C01D1260205E0022C01D158
:103D5000260201E04FF44076092D20D1474810306B
:103D6000006820F44070454910310860084600683A
:103D7000304308600846006840F0040008600846C8
:103D8000006840F480300860FFF729FF05463B4893
:103D90001030006820F004003849103108602846CF
:103DA00070BD70B5044600260925FFF718FF0546CB
:103DB0002CB1012C03D0022C01D0032C00D104E043
:103DC00040F2772125A0FCF7D5FB0CB9002609E0CD
:103DD000012C01D1260205E0022C01D1260201E0CE
:103DE0004FF44076092D20D124481030006820F48B
:103DF000407022491031086008460068304308606E
:103E00000846006840F0040008600846006840F476
:103E100080300860FFF7E3FE054618481030006860
:103E200020F00400154910310860284670BD70B5B7
:103E3000044600260925FFF7D2FE05462CB1012CC9
:103E400003D0022C01D0032C00D104E040F2BA21AF
:103E500002A0FCF78FFBBCB900261FE07372635C05
:103E600073706C5C7372635C73746D333266347838
:103E7000785F666C6173682E63000000003C02404E
:103E800023016745AB89EFCD012C01D1260205E066
:103E9000022C01D1260201E04FF44076092D1CD1FD
:103EA000F748006820F44070F5490860084600684B
:103EB000304308600846006840F400400860084647
:103EC000006840F480300860FFF789FE0546EC4842
:103ED000006820F40040EA490860284670BD2DE9DA
:103EE000F041044615461E460927B4F1006F02D37F
:103EF000B4F1016F05D3E348844203D3E24884421E
:103F000000D805E040F2F121AFF2B000FCF732FB3F
:103F1000FFF765FE0746092F1AD1D948006820F43B
:103F20004070D74908600846006840F44070086057
:103F30000846006840F00100086025606660FFF7F1
:103F40004EFE0746CE48006820F00100CC490860CC
:103F50003846BDE8F08170B504460D460926B4F137
:103F6000006F02D3B4F1016F05D3C648844203D376
:103F7000C548844200D805E04FF44771AFF22410E1
:103F8000FCF7F8FAFFF72BFE0646092E19D1BC48BC
:103F9000006820F44070BA4908600846006840F4A0
:103FA000007008600846006840F001000860256065
:103FB000FFF715FE0646B248006820F00100B04940
:103FC0000860304670BD70B504460D460926B4F150
:103FD000006F02D3B4F1016F05D3AA48844203D322
:103FE000A948844200D805E040F24631AFF294106F
:103FF000FCF7C0FAFFF7F3FD0646092E19D1A048D9
:10400000006820F440709E4908600846006840F44B
:10401000807008600846006840F001000860258054
:10402000FFF7DDFD06469648006820F00100944940
:104030000860304670BD70B504460D460926B4F1DF
:10404000006F02D3B4F1016F05D38E48844203D3CD
:104050008D48844200D805E04FF45C71AFF2042033
:10406000FCF788FAFFF7BBFD0646092E17D18448F6
:10407000006820F4407082490860084600680860C3
:104080000846006840F0010008602570FFF7A7FDB2
:1040900006467B48006820F00100794908603046F8
:1040A00070BD7748001D006800F0010028B1774816
:1040B0007349083908607648086070477048001DE9
:1040C000006840F001006E49091D0860704770B536
:1040D00004460D460926200B000308B904B105E08B
:1040E00040F2F931AFF28C20FCF744FA0DB1012D0A
:1040F00000D105E040F2FA31AFF2A020FCF73AFA25
:10410000FFF76DFD0646092E10D13DB15C48801DBC
:104110000088A0435A49891D088007E05848801D3F
:104120000088A1B208435649891D088070BD70B54A
:1041300004460D460926200B000308B904B105E02A
:1041400040F22341AFF2EC20FCF714FA0DB1012D3F
:1041500000D105E040F22441AFF20030FCF70AFA4A
:10416000FFF73DFD0646092E10D13DB144480A3007
:104170000088A04342490A31088007E040480A30DD
:104180000088A1B208433E490A31088070BD70B56D
:104190000446FF250CB1802C00D105E040F25541CA
:1041A000AFF24830FCF7E6F93548C01D007800F062
:1041B0007F0544EA05003249C91D087070BD70B51D
:1041C00004460D460926200B000308B904B105E09A
:1041D00040F27441AFF27C30FCF7CCF90DB1012D07
:1041E00000D105E040F27541AFF29030FCF7C2F922
:1041F000FFF7F5FC0646092E10D145B12048801D79
:104200000088A1B208431E49891D088006E01C48A9
:10421000801D0088A0431A49891D088070BD70B5B3
:1042200004460D460926200B000308B904B105E039
:1042300040F29941AFF2DC30FCF79CF90DB1012D51
:1042400000D105E040F29A41AFF2F030FCF792F96C
:10425000FFF7C5FC0646092E10D145B108480A30C3
:104260000088A1B2084306490A31088006E00448E4
:104270000A300088A04302490A31088070BD00005E
:10428000103C02400078FF1F0F7AFF1F3B2A1908DD
:104290007F6E5D4C70B504460925AA2C01D0552CC3
:1042A00000D105E040F2BD41AFF25040FCF762F9A9
:1042B000FFF795FC0546092D01D18448047070BDB7
:1042C0002DE9F04104460D461646FF274FF0090838
:1042D000202C00D004B905E040F2DE41AFF284406A
:1042E000FCF748F9402D00D005B905E040F2DF4168
:1042F000AFF29840FCF73EF9802E00D006B905E0F9
:104300004FF49C61AFF2AC40FCF734F9FFF767FC67
:104310008046B8F1090F0BD16C48401E007800F0C0
:104320000F0745EA0700304320436849491E0870DB
:10433000BDE8F08110B50446102C00D004B905E0AA
:1043400040F20451AFF2EC40FCF714F95F48401E14
:10435000007820F010005D49491E0870084600787A
:104360002043087010BD10B50446082C04D0042C5E
:1043700002D00CB10C2C00D105E040F21951AFF283
:104380002450FCF7F7F85148401E007820F00C004C
:104390004E49491E0870084600782043087010BD39
:1043A00000B509224948401E007840F00200474904
:1043B000491E0870FFF713FC0246104600BD434833
:1043C000401E0068C0F3471070474048401C0088FA
:1043D00070473E48401D008870473C48401C00889C
:1043E00070473A48401D00887047002037490978D7
:1043F000AA2901D0012000E0002070473348401E68
:10440000007800F00C00704770B504460D4624F0AB
:10441000407008B904B105E040F2B451AFF2C450A5
:10442000FCF7A8F80DB1012D00D105E040F2B5511F
:10443000AFF2D850FCF79EF83DB12448401F006809
:1044400020432249491F086006E02048401F0068B9
:10445000A0431E49491F086070BD70B50446002581
:10446000012C0FD0022C0DD0102C0BD0202C09D0F9
:10447000402C07D0802C05D0B4F5803F02D0B4F595
:10448000807F00D105E040F2D551AFF23060FCF7FB
:1044900071F80E4809380068204008B1012500E095
:1044A0000025284670BD10B5044640F2F31024EAFA
:1044B000000008B904B105E040F2F351AFF26460C6
:1044C000FCF758F801480938046010BD153C02405B
:1044D000704770477047754600F02CF8AE460500EF
:1044E0006946534620F00700854618B020B5FCF712
:1044F00067F8BDE820404FF000064FF000074FF08E
:1045000000084FF0000B21F00701AC46ACE8C009F1
:10451000ACE8C009ACE8C009ACE8C0098D467047FA
:1045200010B50446AFF300802046BDE81040FBF70D
:1045300074BE00000048704734060020014918206E
:10454000ABBEFEE72600020070474FF04070E1EE80
:10455000100A70479445000800060020340000004F
:10456000C401000894450008000000200004000079
:10457000E00100089445000800040020000200004B
:10458000E0010008C8450008340600206000000073
:10459000E001000800000000000000000000000032
:1045A00000000000007A030A000000000000000084
:1045B00001020304060708090000000001020304C9
:0845C0000102030406070809CB
:040000050800018965
:00000001FF
